{"contracts/MerkleDistributor.sol":{"MerkleDistributor":{"abi":[{"inputs":[{"internalType":"address","name":"token_","type":"address"},{"internalType":"bytes32","name":"merkleRoot_","type":"bytes32"},{"internalType":"uint256","name":"dropAmont_","type":"uint256"}],"stateMutability":"nonpayable","type":"constructor"},{"anonymous":false,"inputs":[{"indexed":true,"internalType":"address","name":"_from","type":"address"},{"indexed":false,"internalType":"uint256","name":"_dropAmount","type":"uint256"}],"name":"Claimed","type":"event"},{"inputs":[{"internalType":"bytes32[]","name":"merkleProof","type":"bytes32[]"}],"name":"claim","outputs":[],"stateMutability":"nonpayable","type":"function"},{"inputs":[],"name":"dropAmont","outputs":[{"internalType":"uint256","name":"","type":"uint256"}],"stateMutability":"view","type":"function"},{"inputs":[],"name":"merkleRoot","outputs":[{"internalType":"bytes32","name":"","type":"bytes32"}],"stateMutability":"view","type":"function"},{"inputs":[],"name":"token","outputs":[{"internalType":"address","name":"","type":"address"}],"stateMutability":"view","type":"function"}],"evm":{"bytecode":{"linkReferences":{},"object":"60c06040523480156200001157600080fd5b506040516200120838038062001208833981810160405281019062000037919062000163565b8273ffffffffffffffffffffffffffffffffffffffff1660808173ffffffffffffffffffffffffffffffffffffffff16815250508160a0818152505080600081905550505050620001bf565b600080fd5b600073ffffffffffffffffffffffffffffffffffffffff82169050919050565b6000620000b58262000088565b9050919050565b620000c781620000a8565b8114620000d357600080fd5b50565b600081519050620000e781620000bc565b92915050565b6000819050919050565b6200010281620000ed565b81146200010e57600080fd5b50565b6000815190506200012281620000f7565b92915050565b6000819050919050565b6200013d8162000128565b81146200014957600080fd5b50565b6000815190506200015d8162000132565b92915050565b6000806000606084860312156200017f576200017e62000083565b5b60006200018f86828701620000d6565b9350506020620001a28682870162000111565b9250506040620001b5868287016200014c565b9150509250925092565b60805160a051611016620001f26000396000818160c901526101f001526000818161031101526103ac01526110166000f3fe608060405234801561001057600080fd5b506004361061004c5760003560e01c80632eb4a7ab146100515780635dc536421461006f578063b391c5081461008d578063fc0c546a146100a9575b600080fd5b6100596100c7565b60405161006691906107b1565b60405180910390f35b6100776100eb565b60405161008491906107e5565b60405180910390f35b6100a760048036038101906100a2919061086f565b6100f1565b005b6100b16103aa565b6040516100be91906108fd565b60405180910390f35b7f000000000000000000000000000000000000000000000000000000000000000081565b60005481565b600160003373ffffffffffffffffffffffffffffffffffffffff1673ffffffffffffffffffffffffffffffffffffffff16815260200190815260200160002060009054906101000a900460ff161561017e576040517f08c379a00000000000000000000000000000000000000000000000000000000081526004016101759061099b565b60405180910390fd5b6000336040516020016101919190610a03565b604051602081830303815290604052805190602001209050610215838380806020026020016040519081016040528093929190818152602001838360200280828437600081840152601f19601f820116905080830192505050505050507f0000000000000000000000000000000000000000000000000000000000000000836103ce565b610254576040517f08c379a000000000000000000000000000000000000000000000000000000000815260040161024b90610a6a565b60405180910390fd5b60004244416001436102669190610ab9565b4060405160200161027a9493929190610b6a565b6040516020818303038152906040528051906020012060001c905060006001600054836102a79190610be7565b6102b19190610c18565b905060018060003373ffffffffffffffffffffffffffffffffffffffff1673ffffffffffffffffffffffffffffffffffffffff16815260200190815260200160002060006101000a81548160ff02191690831515021790555061035533827f000000000000000000000000000000000000000000000000000000000000000073ffffffffffffffffffffffffffffffffffffffff166103e59092919063ffffffff16565b3373ffffffffffffffffffffffffffffffffffffffff167fd8138f8a3f377c5259ca548e70e4c2de94f129f5a11036a15b69513cba2b426a8260405161039b91906107e5565b60405180910390a25050505050565b7f000000000000000000000000000000000000000000000000000000000000000081565b6000826103db858461046b565b1490509392505050565b6104668363a9059cbb60e01b8484604051602401610404929190610c4c565b604051602081830303815290604052907bffffffffffffffffffffffffffffffffffffffffffffffffffffffff19166020820180517bffffffffffffffffffffffffffffffffffffffffffffffffffffffff83818316178352505050506104c1565b505050565b60008082905060005b84518110156104b6576104a18286838151811061049457610493610c75565b5b6020026020010151610589565b915080806104ae90610ca4565b915050610474565b508091505092915050565b6000610523826040518060400160405280602081526020017f5361666545524332303a206c6f772d6c6576656c2063616c6c206661696c65648152508573ffffffffffffffffffffffffffffffffffffffff166105b49092919063ffffffff16565b90506000815114806105455750808060200190518101906105449190610d24565b5b610584576040517f08c379a000000000000000000000000000000000000000000000000000000000815260040161057b90610dc3565b60405180910390fd5b505050565b60008183106105a15761059c82846105cc565b6105ac565b6105ab83836105cc565b5b905092915050565b60606105c384846000856105e3565b90509392505050565b600082600052816020526040600020905092915050565b606082471015610628576040517f08c379a000000000000000000000000000000000000000000000000000000000815260040161061f90610e55565b60405180910390fd5b6000808673ffffffffffffffffffffffffffffffffffffffff1685876040516106519190610ee6565b60006040518083038185875af1925050503d806000811461068e576040519150601f19603f3d011682016040523d82523d6000602084013e610693565b606091505b50915091506106a4878383876106b0565b92505050949350505050565b6060831561071257600083510361070a576106ca85610725565b610709576040517f08c379a000000000000000000000000000000000000000000000000000000000815260040161070090610f49565b60405180910390fd5b5b82905061071d565b61071c8383610748565b5b949350505050565b6000808273ffffffffffffffffffffffffffffffffffffffff163b119050919050565b60008251111561075b5781518083602001fd5b806040517f08c379a000000000000000000000000000000000000000000000000000000000815260040161078f9190610fbe565b60405180910390fd5b6000819050919050565b6107ab81610798565b82525050565b60006020820190506107c660008301846107a2565b92915050565b6000819050919050565b6107df816107cc565b82525050565b60006020820190506107fa60008301846107d6565b92915050565b600080fd5b600080fd5b600080fd5b600080fd5b600080fd5b60008083601f84011261082f5761082e61080a565b5b8235905067ffffffffffffffff81111561084c5761084b61080f565b5b60208301915083602082028301111561086857610867610814565b5b9250929050565b6000806020838503121561088657610885610800565b5b600083013567ffffffffffffffff8111156108a4576108a3610805565b5b6108b085828601610819565b92509250509250929050565b600073ffffffffffffffffffffffffffffffffffffffff82169050919050565b60006108e7826108bc565b9050919050565b6108f7816108dc565b82525050565b600060208201905061091260008301846108ee565b92915050565b600082825260208201905092915050565b7f4d65726b6c654469737472696275746f723a2044726f7020616c72656164792060008201527f636c61696d656400000000000000000000000000000000000000000000000000602082015250565b6000610985602783610918565b915061099082610929565b604082019050919050565b600060208201905081810360008301526109b481610978565b9050919050565b60008160601b9050919050565b60006109d3826109bb565b9050919050565b60006109e5826109c8565b9050919050565b6109fd6109f8826108dc565b6109da565b82525050565b6000610a0f82846109ec565b60148201915081905092915050565b7f4d65726b6c654469737472696275746f723a20496e76616c69642070726f6f66600082015250565b6000610a54602083610918565b9150610a5f82610a1e565b602082019050919050565b60006020820190508181036000830152610a8381610a47565b9050919050565b7f4e487b7100000000000000000000000000000000000000000000000000000000600052601160045260246000fd5b6000610ac4826107cc565b9150610acf836107cc565b9250828203905081811115610ae757610ae6610a8a565b5b92915050565b6000819050919050565b610b08610b03826107cc565b610aed565b82525050565b6000610b19826108bc565b9050919050565b6000610b2b826109c8565b9050919050565b610b43610b3e82610b0e565b610b20565b82525050565b6000819050919050565b610b64610b5f82610798565b610b49565b82525050565b6000610b768287610af7565b602082019150610b868286610af7565b602082019150610b968285610b32565b601482019150610ba68284610b53565b60208201915081905095945050505050565b7f4e487b7100000000000000000000000000000000000000000000000000000000600052601260045260246000fd5b6000610bf2826107cc565b9150610bfd836107cc565b925082610c0d57610c0c610bb8565b5b828206905092915050565b6000610c23826107cc565b9150610c2e836107cc565b9250828201905080821115610c4657610c45610a8a565b5b92915050565b6000604082019050610c6160008301856108ee565b610c6e60208301846107d6565b9392505050565b7f4e487b7100000000000000000000000000000000000000000000000000000000600052603260045260246000fd5b6000610caf826107cc565b91507fffffffffffffffffffffffffffffffffffffffffffffffffffffffffffffffff8203610ce157610ce0610a8a565b5b600182019050919050565b60008115159050919050565b610d0181610cec565b8114610d0c57600080fd5b50565b600081519050610d1e81610cf8565b92915050565b600060208284031215610d3a57610d39610800565b5b6000610d4884828501610d0f565b91505092915050565b7f5361666545524332303a204552433230206f7065726174696f6e20646964206e60008201527f6f74207375636365656400000000000000000000000000000000000000000000602082015250565b6000610dad602a83610918565b9150610db882610d51565b604082019050919050565b60006020820190508181036000830152610ddc81610da0565b9050919050565b7f416464726573733a20696e73756666696369656e742062616c616e636520666f60008201527f722063616c6c0000000000000000000000000000000000000000000000000000602082015250565b6000610e3f602683610918565b9150610e4a82610de3565b604082019050919050565b60006020820190508181036000830152610e6e81610e32565b9050919050565b600081519050919050565b600081905092915050565b60005b83811015610ea9578082015181840152602081019050610e8e565b60008484015250505050565b6000610ec082610e75565b610eca8185610e80565b9350610eda818560208601610e8b565b80840191505092915050565b6000610ef28284610eb5565b915081905092915050565b7f416464726573733a2063616c6c20746f206e6f6e2d636f6e7472616374000000600082015250565b6000610f33601d83610918565b9150610f3e82610efd565b602082019050919050565b60006020820190508181036000830152610f6281610f26565b9050919050565b600081519050919050565b6000601f19601f8301169050919050565b6000610f9082610f69565b610f9a8185610918565b9350610faa818560208601610e8b565b610fb381610f74565b840191505092915050565b60006020820190508181036000830152610fd88184610f85565b90509291505056fea2646970667358221220f18efc45e3c0a2e86e1403a1e67b2b2c11347a9780f84ae43d6832f9aeabdaf564736f6c63430008130033","opcodes":"PUSH1 0xC0 PUSH1 0x40 MSTORE CALLVALUE DUP1 ISZERO PUSH3 0x11 JUMPI PUSH1 0x0 DUP1 REVERT JUMPDEST POP PUSH1 0x40 MLOAD PUSH3 0x1208 CODESIZE SUB DUP1 PUSH3 0x1208 DUP4 CODECOPY DUP2 DUP2 ADD PUSH1 0x40 MSTORE DUP2 ADD SWAP1 PUSH3 0x37 SWAP2 SWAP1 PUSH3 0x163 JUMP JUMPDEST DUP3 PUSH20 0xFFFFFFFFFFFFFFFFFFFFFFFFFFFFFFFFFFFFFFFF AND PUSH1 0x80 DUP2 PUSH20 0xFFFFFFFFFFFFFFFFFFFFFFFFFFFFFFFFFFFFFFFF AND DUP2 MSTORE POP POP DUP2 PUSH1 0xA0 DUP2 DUP2 MSTORE POP POP DUP1 PUSH1 0x0 DUP2 SWAP1 SSTORE POP POP POP POP PUSH3 0x1BF JUMP JUMPDEST PUSH1 0x0 DUP1 REVERT JUMPDEST PUSH1 0x0 PUSH20 0xFFFFFFFFFFFFFFFFFFFFFFFFFFFFFFFFFFFFFFFF DUP3 AND SWAP1 POP SWAP2 SWAP1 POP JUMP JUMPDEST PUSH1 0x0 PUSH3 0xB5 DUP3 PUSH3 0x88 JUMP JUMPDEST SWAP1 POP SWAP2 SWAP1 POP JUMP JUMPDEST PUSH3 0xC7 DUP2 PUSH3 0xA8 JUMP JUMPDEST DUP2 EQ PUSH3 0xD3 JUMPI PUSH1 0x0 DUP1 REVERT JUMPDEST POP JUMP JUMPDEST PUSH1 0x0 DUP2 MLOAD SWAP1 POP PUSH3 0xE7 DUP2 PUSH3 0xBC JUMP JUMPDEST SWAP3 SWAP2 POP POP JUMP JUMPDEST PUSH1 0x0 DUP2 SWAP1 POP SWAP2 SWAP1 POP JUMP JUMPDEST PUSH3 0x102 DUP2 PUSH3 0xED JUMP JUMPDEST DUP2 EQ PUSH3 0x10E JUMPI PUSH1 0x0 DUP1 REVERT JUMPDEST POP JUMP JUMPDEST PUSH1 0x0 DUP2 MLOAD SWAP1 POP PUSH3 0x122 DUP2 PUSH3 0xF7 JUMP JUMPDEST SWAP3 SWAP2 POP POP JUMP JUMPDEST PUSH1 0x0 DUP2 SWAP1 POP SWAP2 SWAP1 POP JUMP JUMPDEST PUSH3 0x13D DUP2 PUSH3 0x128 JUMP JUMPDEST DUP2 EQ PUSH3 0x149 JUMPI PUSH1 0x0 DUP1 REVERT JUMPDEST POP JUMP JUMPDEST PUSH1 0x0 DUP2 MLOAD SWAP1 POP PUSH3 0x15D DUP2 PUSH3 0x132 JUMP JUMPDEST SWAP3 SWAP2 POP POP JUMP JUMPDEST PUSH1 0x0 DUP1 PUSH1 0x0 PUSH1 0x60 DUP5 DUP7 SUB SLT ISZERO PUSH3 0x17F JUMPI PUSH3 0x17E PUSH3 0x83 JUMP JUMPDEST JUMPDEST PUSH1 0x0 PUSH3 0x18F DUP7 DUP3 DUP8 ADD PUSH3 0xD6 JUMP JUMPDEST SWAP4 POP POP PUSH1 0x20 PUSH3 0x1A2 DUP7 DUP3 DUP8 ADD PUSH3 0x111 JUMP JUMPDEST SWAP3 POP POP PUSH1 0x40 PUSH3 0x1B5 DUP7 DUP3 DUP8 ADD PUSH3 0x14C JUMP JUMPDEST SWAP2 POP POP SWAP3 POP SWAP3 POP SWAP3 JUMP JUMPDEST PUSH1 0x80 MLOAD PUSH1 0xA0 MLOAD PUSH2 0x1016 PUSH3 0x1F2 PUSH1 0x0 CODECOPY PUSH1 0x0 DUP2 DUP2 PUSH1 0xC9 ADD MSTORE PUSH2 0x1F0 ADD MSTORE PUSH1 0x0 DUP2 DUP2 PUSH2 0x311 ADD MSTORE PUSH2 0x3AC ADD MSTORE PUSH2 0x1016 PUSH1 0x0 RETURN INVALID PUSH1 0x80 PUSH1 0x40 MSTORE CALLVALUE DUP1 ISZERO PUSH2 0x10 JUMPI PUSH1 0x0 DUP1 REVERT JUMPDEST POP PUSH1 0x4 CALLDATASIZE LT PUSH2 0x4C JUMPI PUSH1 0x0 CALLDATALOAD PUSH1 0xE0 SHR DUP1 PUSH4 0x2EB4A7AB EQ PUSH2 0x51 JUMPI DUP1 PUSH4 0x5DC53642 EQ PUSH2 0x6F JUMPI DUP1 PUSH4 0xB391C508 EQ PUSH2 0x8D JUMPI DUP1 PUSH4 0xFC0C546A EQ PUSH2 0xA9 JUMPI JUMPDEST PUSH1 0x0 DUP1 REVERT JUMPDEST PUSH2 0x59 PUSH2 0xC7 JUMP JUMPDEST PUSH1 0x40 MLOAD PUSH2 0x66 SWAP2 SWAP1 PUSH2 0x7B1 JUMP JUMPDEST PUSH1 0x40 MLOAD DUP1 SWAP2 SUB SWAP1 RETURN JUMPDEST PUSH2 0x77 PUSH2 0xEB JUMP JUMPDEST PUSH1 0x40 MLOAD PUSH2 0x84 SWAP2 SWAP1 PUSH2 0x7E5 JUMP JUMPDEST PUSH1 0x40 MLOAD DUP1 SWAP2 SUB SWAP1 RETURN JUMPDEST PUSH2 0xA7 PUSH1 0x4 DUP1 CALLDATASIZE SUB DUP2 ADD SWAP1 PUSH2 0xA2 SWAP2 SWAP1 PUSH2 0x86F JUMP JUMPDEST PUSH2 0xF1 JUMP JUMPDEST STOP JUMPDEST PUSH2 0xB1 PUSH2 0x3AA JUMP JUMPDEST PUSH1 0x40 MLOAD PUSH2 0xBE SWAP2 SWAP1 PUSH2 0x8FD JUMP JUMPDEST PUSH1 0x40 MLOAD DUP1 SWAP2 SUB SWAP1 RETURN JUMPDEST PUSH32 0x0 DUP2 JUMP JUMPDEST PUSH1 0x0 SLOAD DUP2 JUMP JUMPDEST PUSH1 0x1 PUSH1 0x0 CALLER PUSH20 0xFFFFFFFFFFFFFFFFFFFFFFFFFFFFFFFFFFFFFFFF AND PUSH20 0xFFFFFFFFFFFFFFFFFFFFFFFFFFFFFFFFFFFFFFFF AND DUP2 MSTORE PUSH1 0x20 ADD SWAP1 DUP2 MSTORE PUSH1 0x20 ADD PUSH1 0x0 KECCAK256 PUSH1 0x0 SWAP1 SLOAD SWAP1 PUSH2 0x100 EXP SWAP1 DIV PUSH1 0xFF AND ISZERO PUSH2 0x17E JUMPI PUSH1 0x40 MLOAD PUSH32 0x8C379A000000000000000000000000000000000000000000000000000000000 DUP2 MSTORE PUSH1 0x4 ADD PUSH2 0x175 SWAP1 PUSH2 0x99B JUMP JUMPDEST PUSH1 0x40 MLOAD DUP1 SWAP2 SUB SWAP1 REVERT JUMPDEST PUSH1 0x0 CALLER PUSH1 0x40 MLOAD PUSH1 0x20 ADD PUSH2 0x191 SWAP2 SWAP1 PUSH2 0xA03 JUMP JUMPDEST PUSH1 0x40 MLOAD PUSH1 0x20 DUP2 DUP4 SUB SUB DUP2 MSTORE SWAP1 PUSH1 0x40 MSTORE DUP1 MLOAD SWAP1 PUSH1 0x20 ADD KECCAK256 SWAP1 POP PUSH2 0x215 DUP4 DUP4 DUP1 DUP1 PUSH1 0x20 MUL PUSH1 0x20 ADD PUSH1 0x40 MLOAD SWAP1 DUP2 ADD PUSH1 0x40 MSTORE DUP1 SWAP4 SWAP3 SWAP2 SWAP1 DUP2 DUP2 MSTORE PUSH1 0x20 ADD DUP4 DUP4 PUSH1 0x20 MUL DUP1 DUP3 DUP5 CALLDATACOPY PUSH1 0x0 DUP2 DUP5 ADD MSTORE PUSH1 0x1F NOT PUSH1 0x1F DUP3 ADD AND SWAP1 POP DUP1 DUP4 ADD SWAP3 POP POP POP POP POP POP POP PUSH32 0x0 DUP4 PUSH2 0x3CE JUMP JUMPDEST PUSH2 0x254 JUMPI PUSH1 0x40 MLOAD PUSH32 0x8C379A000000000000000000000000000000000000000000000000000000000 DUP2 MSTORE PUSH1 0x4 ADD PUSH2 0x24B SWAP1 PUSH2 0xA6A JUMP JUMPDEST PUSH1 0x40 MLOAD DUP1 SWAP2 SUB SWAP1 REVERT JUMPDEST PUSH1 0x0 TIMESTAMP PREVRANDAO COINBASE PUSH1 0x1 NUMBER PUSH2 0x266 SWAP2 SWAP1 PUSH2 0xAB9 JUMP JUMPDEST BLOCKHASH PUSH1 0x40 MLOAD PUSH1 0x20 ADD PUSH2 0x27A SWAP5 SWAP4 SWAP3 SWAP2 SWAP1 PUSH2 0xB6A JUMP JUMPDEST PUSH1 0x40 MLOAD PUSH1 0x20 DUP2 DUP4 SUB SUB DUP2 MSTORE SWAP1 PUSH1 0x40 MSTORE DUP1 MLOAD SWAP1 PUSH1 0x20 ADD KECCAK256 PUSH1 0x0 SHR SWAP1 POP PUSH1 0x0 PUSH1 0x1 PUSH1 0x0 SLOAD DUP4 PUSH2 0x2A7 SWAP2 SWAP1 PUSH2 0xBE7 JUMP JUMPDEST PUSH2 0x2B1 SWAP2 SWAP1 PUSH2 0xC18 JUMP JUMPDEST SWAP1 POP PUSH1 0x1 DUP1 PUSH1 0x0 CALLER PUSH20 0xFFFFFFFFFFFFFFFFFFFFFFFFFFFFFFFFFFFFFFFF AND PUSH20 0xFFFFFFFFFFFFFFFFFFFFFFFFFFFFFFFFFFFFFFFF AND DUP2 MSTORE PUSH1 0x20 ADD SWAP1 DUP2 MSTORE PUSH1 0x20 ADD PUSH1 0x0 KECCAK256 PUSH1 0x0 PUSH2 0x100 EXP DUP2 SLOAD DUP2 PUSH1 0xFF MUL NOT AND SWAP1 DUP4 ISZERO ISZERO MUL OR SWAP1 SSTORE POP PUSH2 0x355 CALLER DUP3 PUSH32 0x0 PUSH20 0xFFFFFFFFFFFFFFFFFFFFFFFFFFFFFFFFFFFFFFFF AND PUSH2 0x3E5 SWAP1 SWAP3 SWAP2 SWAP1 PUSH4 0xFFFFFFFF AND JUMP JUMPDEST CALLER PUSH20 0xFFFFFFFFFFFFFFFFFFFFFFFFFFFFFFFFFFFFFFFF AND PUSH32 0xD8138F8A3F377C5259CA548E70E4C2DE94F129F5A11036A15B69513CBA2B426A DUP3 PUSH1 0x40 MLOAD PUSH2 0x39B SWAP2 SWAP1 PUSH2 0x7E5 JUMP JUMPDEST PUSH1 0x40 MLOAD DUP1 SWAP2 SUB SWAP1 LOG2 POP POP POP POP POP JUMP JUMPDEST PUSH32 0x0 DUP2 JUMP JUMPDEST PUSH1 0x0 DUP3 PUSH2 0x3DB DUP6 DUP5 PUSH2 0x46B JUMP JUMPDEST EQ SWAP1 POP SWAP4 SWAP3 POP POP POP JUMP JUMPDEST PUSH2 0x466 DUP4 PUSH4 0xA9059CBB PUSH1 0xE0 SHL DUP5 DUP5 PUSH1 0x40 MLOAD PUSH1 0x24 ADD PUSH2 0x404 SWAP3 SWAP2 SWAP1 PUSH2 0xC4C JUMP JUMPDEST PUSH1 0x40 MLOAD PUSH1 0x20 DUP2 DUP4 SUB SUB DUP2 MSTORE SWAP1 PUSH1 0x40 MSTORE SWAP1 PUSH28 0xFFFFFFFFFFFFFFFFFFFFFFFFFFFFFFFFFFFFFFFFFFFFFFFFFFFFFFFF NOT AND PUSH1 0x20 DUP3 ADD DUP1 MLOAD PUSH28 0xFFFFFFFFFFFFFFFFFFFFFFFFFFFFFFFFFFFFFFFFFFFFFFFFFFFFFFFF DUP4 DUP2 DUP4 AND OR DUP4 MSTORE POP POP POP POP PUSH2 0x4C1 JUMP JUMPDEST POP POP POP JUMP JUMPDEST PUSH1 0x0 DUP1 DUP3 SWAP1 POP PUSH1 0x0 JUMPDEST DUP5 MLOAD DUP2 LT ISZERO PUSH2 0x4B6 JUMPI PUSH2 0x4A1 DUP3 DUP7 DUP4 DUP2 MLOAD DUP2 LT PUSH2 0x494 JUMPI PUSH2 0x493 PUSH2 0xC75 JUMP JUMPDEST JUMPDEST PUSH1 0x20 MUL PUSH1 0x20 ADD ADD MLOAD PUSH2 0x589 JUMP JUMPDEST SWAP2 POP DUP1 DUP1 PUSH2 0x4AE SWAP1 PUSH2 0xCA4 JUMP JUMPDEST SWAP2 POP POP PUSH2 0x474 JUMP JUMPDEST POP DUP1 SWAP2 POP POP SWAP3 SWAP2 POP POP JUMP JUMPDEST PUSH1 0x0 PUSH2 0x523 DUP3 PUSH1 0x40 MLOAD DUP1 PUSH1 0x40 ADD PUSH1 0x40 MSTORE DUP1 PUSH1 0x20 DUP2 MSTORE PUSH1 0x20 ADD PUSH32 0x5361666545524332303A206C6F772D6C6576656C2063616C6C206661696C6564 DUP2 MSTORE POP DUP6 PUSH20 0xFFFFFFFFFFFFFFFFFFFFFFFFFFFFFFFFFFFFFFFF AND PUSH2 0x5B4 SWAP1 SWAP3 SWAP2 SWAP1 PUSH4 0xFFFFFFFF AND JUMP JUMPDEST SWAP1 POP PUSH1 0x0 DUP2 MLOAD EQ DUP1 PUSH2 0x545 JUMPI POP DUP1 DUP1 PUSH1 0x20 ADD SWAP1 MLOAD DUP2 ADD SWAP1 PUSH2 0x544 SWAP2 SWAP1 PUSH2 0xD24 JUMP JUMPDEST JUMPDEST PUSH2 0x584 JUMPI PUSH1 0x40 MLOAD PUSH32 0x8C379A000000000000000000000000000000000000000000000000000000000 DUP2 MSTORE PUSH1 0x4 ADD PUSH2 0x57B SWAP1 PUSH2 0xDC3 JUMP JUMPDEST PUSH1 0x40 MLOAD DUP1 SWAP2 SUB SWAP1 REVERT JUMPDEST POP POP POP JUMP JUMPDEST PUSH1 0x0 DUP2 DUP4 LT PUSH2 0x5A1 JUMPI PUSH2 0x59C DUP3 DUP5 PUSH2 0x5CC JUMP JUMPDEST PUSH2 0x5AC JUMP JUMPDEST PUSH2 0x5AB DUP4 DUP4 PUSH2 0x5CC JUMP JUMPDEST JUMPDEST SWAP1 POP SWAP3 SWAP2 POP POP JUMP JUMPDEST PUSH1 0x60 PUSH2 0x5C3 DUP5 DUP5 PUSH1 0x0 DUP6 PUSH2 0x5E3 JUMP JUMPDEST SWAP1 POP SWAP4 SWAP3 POP POP POP JUMP JUMPDEST PUSH1 0x0 DUP3 PUSH1 0x0 MSTORE DUP2 PUSH1 0x20 MSTORE PUSH1 0x40 PUSH1 0x0 KECCAK256 SWAP1 POP SWAP3 SWAP2 POP POP JUMP JUMPDEST PUSH1 0x60 DUP3 SELFBALANCE LT ISZERO PUSH2 0x628 JUMPI PUSH1 0x40 MLOAD PUSH32 0x8C379A000000000000000000000000000000000000000000000000000000000 DUP2 MSTORE PUSH1 0x4 ADD PUSH2 0x61F SWAP1 PUSH2 0xE55 JUMP JUMPDEST PUSH1 0x40 MLOAD DUP1 SWAP2 SUB SWAP1 REVERT JUMPDEST PUSH1 0x0 DUP1 DUP7 PUSH20 0xFFFFFFFFFFFFFFFFFFFFFFFFFFFFFFFFFFFFFFFF AND DUP6 DUP8 PUSH1 0x40 MLOAD PUSH2 0x651 SWAP2 SWAP1 PUSH2 0xEE6 JUMP JUMPDEST PUSH1 0x0 PUSH1 0x40 MLOAD DUP1 DUP4 SUB DUP2 DUP6 DUP8 GAS CALL SWAP3 POP POP POP RETURNDATASIZE DUP1 PUSH1 0x0 DUP2 EQ PUSH2 0x68E JUMPI PUSH1 0x40 MLOAD SWAP2 POP PUSH1 0x1F NOT PUSH1 0x3F RETURNDATASIZE ADD AND DUP3 ADD PUSH1 0x40 MSTORE RETURNDATASIZE DUP3 MSTORE RETURNDATASIZE PUSH1 0x0 PUSH1 0x20 DUP5 ADD RETURNDATACOPY PUSH2 0x693 JUMP JUMPDEST PUSH1 0x60 SWAP2 POP JUMPDEST POP SWAP2 POP SWAP2 POP PUSH2 0x6A4 DUP8 DUP4 DUP4 DUP8 PUSH2 0x6B0 JUMP JUMPDEST SWAP3 POP POP POP SWAP5 SWAP4 POP POP POP POP JUMP JUMPDEST PUSH1 0x60 DUP4 ISZERO PUSH2 0x712 JUMPI PUSH1 0x0 DUP4 MLOAD SUB PUSH2 0x70A JUMPI PUSH2 0x6CA DUP6 PUSH2 0x725 JUMP JUMPDEST PUSH2 0x709 JUMPI PUSH1 0x40 MLOAD PUSH32 0x8C379A000000000000000000000000000000000000000000000000000000000 DUP2 MSTORE PUSH1 0x4 ADD PUSH2 0x700 SWAP1 PUSH2 0xF49 JUMP JUMPDEST PUSH1 0x40 MLOAD DUP1 SWAP2 SUB SWAP1 REVERT JUMPDEST JUMPDEST DUP3 SWAP1 POP PUSH2 0x71D JUMP JUMPDEST PUSH2 0x71C DUP4 DUP4 PUSH2 0x748 JUMP JUMPDEST JUMPDEST SWAP5 SWAP4 POP POP POP POP JUMP JUMPDEST PUSH1 0x0 DUP1 DUP3 PUSH20 0xFFFFFFFFFFFFFFFFFFFFFFFFFFFFFFFFFFFFFFFF AND EXTCODESIZE GT SWAP1 POP SWAP2 SWAP1 POP JUMP JUMPDEST PUSH1 0x0 DUP3 MLOAD GT ISZERO PUSH2 0x75B JUMPI DUP2 MLOAD DUP1 DUP4 PUSH1 0x20 ADD REVERT JUMPDEST DUP1 PUSH1 0x40 MLOAD PUSH32 0x8C379A000000000000000000000000000000000000000000000000000000000 DUP2 MSTORE PUSH1 0x4 ADD PUSH2 0x78F SWAP2 SWAP1 PUSH2 0xFBE JUMP JUMPDEST PUSH1 0x40 MLOAD DUP1 SWAP2 SUB SWAP1 REVERT JUMPDEST PUSH1 0x0 DUP2 SWAP1 POP SWAP2 SWAP1 POP JUMP JUMPDEST PUSH2 0x7AB DUP2 PUSH2 0x798 JUMP JUMPDEST DUP3 MSTORE POP POP JUMP JUMPDEST PUSH1 0x0 PUSH1 0x20 DUP3 ADD SWAP1 POP PUSH2 0x7C6 PUSH1 0x0 DUP4 ADD DUP5 PUSH2 0x7A2 JUMP JUMPDEST SWAP3 SWAP2 POP POP JUMP JUMPDEST PUSH1 0x0 DUP2 SWAP1 POP SWAP2 SWAP1 POP JUMP JUMPDEST PUSH2 0x7DF DUP2 PUSH2 0x7CC JUMP JUMPDEST DUP3 MSTORE POP POP JUMP JUMPDEST PUSH1 0x0 PUSH1 0x20 DUP3 ADD SWAP1 POP PUSH2 0x7FA PUSH1 0x0 DUP4 ADD DUP5 PUSH2 0x7D6 JUMP JUMPDEST SWAP3 SWAP2 POP POP JUMP JUMPDEST PUSH1 0x0 DUP1 REVERT JUMPDEST PUSH1 0x0 DUP1 REVERT JUMPDEST PUSH1 0x0 DUP1 REVERT JUMPDEST PUSH1 0x0 DUP1 REVERT JUMPDEST PUSH1 0x0 DUP1 REVERT JUMPDEST PUSH1 0x0 DUP1 DUP4 PUSH1 0x1F DUP5 ADD SLT PUSH2 0x82F JUMPI PUSH2 0x82E PUSH2 0x80A JUMP JUMPDEST JUMPDEST DUP3 CALLDATALOAD SWAP1 POP PUSH8 0xFFFFFFFFFFFFFFFF DUP2 GT ISZERO PUSH2 0x84C JUMPI PUSH2 0x84B PUSH2 0x80F JUMP JUMPDEST JUMPDEST PUSH1 0x20 DUP4 ADD SWAP2 POP DUP4 PUSH1 0x20 DUP3 MUL DUP4 ADD GT ISZERO PUSH2 0x868 JUMPI PUSH2 0x867 PUSH2 0x814 JUMP JUMPDEST JUMPDEST SWAP3 POP SWAP3 SWAP1 POP JUMP JUMPDEST PUSH1 0x0 DUP1 PUSH1 0x20 DUP4 DUP6 SUB SLT ISZERO PUSH2 0x886 JUMPI PUSH2 0x885 PUSH2 0x800 JUMP JUMPDEST JUMPDEST PUSH1 0x0 DUP4 ADD CALLDATALOAD PUSH8 0xFFFFFFFFFFFFFFFF DUP2 GT ISZERO PUSH2 0x8A4 JUMPI PUSH2 0x8A3 PUSH2 0x805 JUMP JUMPDEST JUMPDEST PUSH2 0x8B0 DUP6 DUP3 DUP7 ADD PUSH2 0x819 JUMP JUMPDEST SWAP3 POP SWAP3 POP POP SWAP3 POP SWAP3 SWAP1 POP JUMP JUMPDEST PUSH1 0x0 PUSH20 0xFFFFFFFFFFFFFFFFFFFFFFFFFFFFFFFFFFFFFFFF DUP3 AND SWAP1 POP SWAP2 SWAP1 POP JUMP JUMPDEST PUSH1 0x0 PUSH2 0x8E7 DUP3 PUSH2 0x8BC JUMP JUMPDEST SWAP1 POP SWAP2 SWAP1 POP JUMP JUMPDEST PUSH2 0x8F7 DUP2 PUSH2 0x8DC JUMP JUMPDEST DUP3 MSTORE POP POP JUMP JUMPDEST PUSH1 0x0 PUSH1 0x20 DUP3 ADD SWAP1 POP PUSH2 0x912 PUSH1 0x0 DUP4 ADD DUP5 PUSH2 0x8EE JUMP JUMPDEST SWAP3 SWAP2 POP POP JUMP JUMPDEST PUSH1 0x0 DUP3 DUP3 MSTORE PUSH1 0x20 DUP3 ADD SWAP1 POP SWAP3 SWAP2 POP POP JUMP JUMPDEST PUSH32 0x4D65726B6C654469737472696275746F723A2044726F7020616C726561647920 PUSH1 0x0 DUP3 ADD MSTORE PUSH32 0x636C61696D656400000000000000000000000000000000000000000000000000 PUSH1 0x20 DUP3 ADD MSTORE POP JUMP JUMPDEST PUSH1 0x0 PUSH2 0x985 PUSH1 0x27 DUP4 PUSH2 0x918 JUMP JUMPDEST SWAP2 POP PUSH2 0x990 DUP3 PUSH2 0x929 JUMP JUMPDEST PUSH1 0x40 DUP3 ADD SWAP1 POP SWAP2 SWAP1 POP JUMP JUMPDEST PUSH1 0x0 PUSH1 0x20 DUP3 ADD SWAP1 POP DUP2 DUP2 SUB PUSH1 0x0 DUP4 ADD MSTORE PUSH2 0x9B4 DUP2 PUSH2 0x978 JUMP JUMPDEST SWAP1 POP SWAP2 SWAP1 POP JUMP JUMPDEST PUSH1 0x0 DUP2 PUSH1 0x60 SHL SWAP1 POP SWAP2 SWAP1 POP JUMP JUMPDEST PUSH1 0x0 PUSH2 0x9D3 DUP3 PUSH2 0x9BB JUMP JUMPDEST SWAP1 POP SWAP2 SWAP1 POP JUMP JUMPDEST PUSH1 0x0 PUSH2 0x9E5 DUP3 PUSH2 0x9C8 JUMP JUMPDEST SWAP1 POP SWAP2 SWAP1 POP JUMP JUMPDEST PUSH2 0x9FD PUSH2 0x9F8 DUP3 PUSH2 0x8DC JUMP JUMPDEST PUSH2 0x9DA JUMP JUMPDEST DUP3 MSTORE POP POP JUMP JUMPDEST PUSH1 0x0 PUSH2 0xA0F DUP3 DUP5 PUSH2 0x9EC JUMP JUMPDEST PUSH1 0x14 DUP3 ADD SWAP2 POP DUP2 SWAP1 POP SWAP3 SWAP2 POP POP JUMP JUMPDEST PUSH32 0x4D65726B6C654469737472696275746F723A20496E76616C69642070726F6F66 PUSH1 0x0 DUP3 ADD MSTORE POP JUMP JUMPDEST PUSH1 0x0 PUSH2 0xA54 PUSH1 0x20 DUP4 PUSH2 0x918 JUMP JUMPDEST SWAP2 POP PUSH2 0xA5F DUP3 PUSH2 0xA1E JUMP JUMPDEST PUSH1 0x20 DUP3 ADD SWAP1 POP SWAP2 SWAP1 POP JUMP JUMPDEST PUSH1 0x0 PUSH1 0x20 DUP3 ADD SWAP1 POP DUP2 DUP2 SUB PUSH1 0x0 DUP4 ADD MSTORE PUSH2 0xA83 DUP2 PUSH2 0xA47 JUMP JUMPDEST SWAP1 POP SWAP2 SWAP1 POP JUMP JUMPDEST PUSH32 0x4E487B7100000000000000000000000000000000000000000000000000000000 PUSH1 0x0 MSTORE PUSH1 0x11 PUSH1 0x4 MSTORE PUSH1 0x24 PUSH1 0x0 REVERT JUMPDEST PUSH1 0x0 PUSH2 0xAC4 DUP3 PUSH2 0x7CC JUMP JUMPDEST SWAP2 POP PUSH2 0xACF DUP4 PUSH2 0x7CC JUMP JUMPDEST SWAP3 POP DUP3 DUP3 SUB SWAP1 POP DUP2 DUP2 GT ISZERO PUSH2 0xAE7 JUMPI PUSH2 0xAE6 PUSH2 0xA8A JUMP JUMPDEST JUMPDEST SWAP3 SWAP2 POP POP JUMP JUMPDEST PUSH1 0x0 DUP2 SWAP1 POP SWAP2 SWAP1 POP JUMP JUMPDEST PUSH2 0xB08 PUSH2 0xB03 DUP3 PUSH2 0x7CC JUMP JUMPDEST PUSH2 0xAED JUMP JUMPDEST DUP3 MSTORE POP POP JUMP JUMPDEST PUSH1 0x0 PUSH2 0xB19 DUP3 PUSH2 0x8BC JUMP JUMPDEST SWAP1 POP SWAP2 SWAP1 POP JUMP JUMPDEST PUSH1 0x0 PUSH2 0xB2B DUP3 PUSH2 0x9C8 JUMP JUMPDEST SWAP1 POP SWAP2 SWAP1 POP JUMP JUMPDEST PUSH2 0xB43 PUSH2 0xB3E DUP3 PUSH2 0xB0E JUMP JUMPDEST PUSH2 0xB20 JUMP JUMPDEST DUP3 MSTORE POP POP JUMP JUMPDEST PUSH1 0x0 DUP2 SWAP1 POP SWAP2 SWAP1 POP JUMP JUMPDEST PUSH2 0xB64 PUSH2 0xB5F DUP3 PUSH2 0x798 JUMP JUMPDEST PUSH2 0xB49 JUMP JUMPDEST DUP3 MSTORE POP POP JUMP JUMPDEST PUSH1 0x0 PUSH2 0xB76 DUP3 DUP8 PUSH2 0xAF7 JUMP JUMPDEST PUSH1 0x20 DUP3 ADD SWAP2 POP PUSH2 0xB86 DUP3 DUP7 PUSH2 0xAF7 JUMP JUMPDEST PUSH1 0x20 DUP3 ADD SWAP2 POP PUSH2 0xB96 DUP3 DUP6 PUSH2 0xB32 JUMP JUMPDEST PUSH1 0x14 DUP3 ADD SWAP2 POP PUSH2 0xBA6 DUP3 DUP5 PUSH2 0xB53 JUMP JUMPDEST PUSH1 0x20 DUP3 ADD SWAP2 POP DUP2 SWAP1 POP SWAP6 SWAP5 POP POP POP POP POP JUMP JUMPDEST PUSH32 0x4E487B7100000000000000000000000000000000000000000000000000000000 PUSH1 0x0 MSTORE PUSH1 0x12 PUSH1 0x4 MSTORE PUSH1 0x24 PUSH1 0x0 REVERT JUMPDEST PUSH1 0x0 PUSH2 0xBF2 DUP3 PUSH2 0x7CC JUMP JUMPDEST SWAP2 POP PUSH2 0xBFD DUP4 PUSH2 0x7CC JUMP JUMPDEST SWAP3 POP DUP3 PUSH2 0xC0D JUMPI PUSH2 0xC0C PUSH2 0xBB8 JUMP JUMPDEST JUMPDEST DUP3 DUP3 MOD SWAP1 POP SWAP3 SWAP2 POP POP JUMP JUMPDEST PUSH1 0x0 PUSH2 0xC23 DUP3 PUSH2 0x7CC JUMP JUMPDEST SWAP2 POP PUSH2 0xC2E DUP4 PUSH2 0x7CC JUMP JUMPDEST SWAP3 POP DUP3 DUP3 ADD SWAP1 POP DUP1 DUP3 GT ISZERO PUSH2 0xC46 JUMPI PUSH2 0xC45 PUSH2 0xA8A JUMP JUMPDEST JUMPDEST SWAP3 SWAP2 POP POP JUMP JUMPDEST PUSH1 0x0 PUSH1 0x40 DUP3 ADD SWAP1 POP PUSH2 0xC61 PUSH1 0x0 DUP4 ADD DUP6 PUSH2 0x8EE JUMP JUMPDEST PUSH2 0xC6E PUSH1 0x20 DUP4 ADD DUP5 PUSH2 0x7D6 JUMP JUMPDEST SWAP4 SWAP3 POP POP POP JUMP JUMPDEST PUSH32 0x4E487B7100000000000000000000000000000000000000000000000000000000 PUSH1 0x0 MSTORE PUSH1 0x32 PUSH1 0x4 MSTORE PUSH1 0x24 PUSH1 0x0 REVERT JUMPDEST PUSH1 0x0 PUSH2 0xCAF DUP3 PUSH2 0x7CC JUMP JUMPDEST SWAP2 POP PUSH32 0xFFFFFFFFFFFFFFFFFFFFFFFFFFFFFFFFFFFFFFFFFFFFFFFFFFFFFFFFFFFFFFFF DUP3 SUB PUSH2 0xCE1 JUMPI PUSH2 0xCE0 PUSH2 0xA8A JUMP JUMPDEST JUMPDEST PUSH1 0x1 DUP3 ADD SWAP1 POP SWAP2 SWAP1 POP JUMP JUMPDEST PUSH1 0x0 DUP2 ISZERO ISZERO SWAP1 POP SWAP2 SWAP1 POP JUMP JUMPDEST PUSH2 0xD01 DUP2 PUSH2 0xCEC JUMP JUMPDEST DUP2 EQ PUSH2 0xD0C JUMPI PUSH1 0x0 DUP1 REVERT JUMPDEST POP JUMP JUMPDEST PUSH1 0x0 DUP2 MLOAD SWAP1 POP PUSH2 0xD1E DUP2 PUSH2 0xCF8 JUMP JUMPDEST SWAP3 SWAP2 POP POP JUMP JUMPDEST PUSH1 0x0 PUSH1 0x20 DUP3 DUP5 SUB SLT ISZERO PUSH2 0xD3A JUMPI PUSH2 0xD39 PUSH2 0x800 JUMP JUMPDEST JUMPDEST PUSH1 0x0 PUSH2 0xD48 DUP5 DUP3 DUP6 ADD PUSH2 0xD0F JUMP JUMPDEST SWAP2 POP POP SWAP3 SWAP2 POP POP JUMP JUMPDEST PUSH32 0x5361666545524332303A204552433230206F7065726174696F6E20646964206E PUSH1 0x0 DUP3 ADD MSTORE PUSH32 0x6F74207375636365656400000000000000000000000000000000000000000000 PUSH1 0x20 DUP3 ADD MSTORE POP JUMP JUMPDEST PUSH1 0x0 PUSH2 0xDAD PUSH1 0x2A DUP4 PUSH2 0x918 JUMP JUMPDEST SWAP2 POP PUSH2 0xDB8 DUP3 PUSH2 0xD51 JUMP JUMPDEST PUSH1 0x40 DUP3 ADD SWAP1 POP SWAP2 SWAP1 POP JUMP JUMPDEST PUSH1 0x0 PUSH1 0x20 DUP3 ADD SWAP1 POP DUP2 DUP2 SUB PUSH1 0x0 DUP4 ADD MSTORE PUSH2 0xDDC DUP2 PUSH2 0xDA0 JUMP JUMPDEST SWAP1 POP SWAP2 SWAP1 POP JUMP JUMPDEST PUSH32 0x416464726573733A20696E73756666696369656E742062616C616E636520666F PUSH1 0x0 DUP3 ADD MSTORE PUSH32 0x722063616C6C0000000000000000000000000000000000000000000000000000 PUSH1 0x20 DUP3 ADD MSTORE POP JUMP JUMPDEST PUSH1 0x0 PUSH2 0xE3F PUSH1 0x26 DUP4 PUSH2 0x918 JUMP JUMPDEST SWAP2 POP PUSH2 0xE4A DUP3 PUSH2 0xDE3 JUMP JUMPDEST PUSH1 0x40 DUP3 ADD SWAP1 POP SWAP2 SWAP1 POP JUMP JUMPDEST PUSH1 0x0 PUSH1 0x20 DUP3 ADD SWAP1 POP DUP2 DUP2 SUB PUSH1 0x0 DUP4 ADD MSTORE PUSH2 0xE6E DUP2 PUSH2 0xE32 JUMP JUMPDEST SWAP1 POP SWAP2 SWAP1 POP JUMP JUMPDEST PUSH1 0x0 DUP2 MLOAD SWAP1 POP SWAP2 SWAP1 POP JUMP JUMPDEST PUSH1 0x0 DUP2 SWAP1 POP SWAP3 SWAP2 POP POP JUMP JUMPDEST PUSH1 0x0 JUMPDEST DUP4 DUP2 LT ISZERO PUSH2 0xEA9 JUMPI DUP1 DUP3 ADD MLOAD DUP2 DUP5 ADD MSTORE PUSH1 0x20 DUP2 ADD SWAP1 POP PUSH2 0xE8E JUMP JUMPDEST PUSH1 0x0 DUP5 DUP5 ADD MSTORE POP POP POP POP JUMP JUMPDEST PUSH1 0x0 PUSH2 0xEC0 DUP3 PUSH2 0xE75 JUMP JUMPDEST PUSH2 0xECA DUP2 DUP6 PUSH2 0xE80 JUMP JUMPDEST SWAP4 POP PUSH2 0xEDA DUP2 DUP6 PUSH1 0x20 DUP7 ADD PUSH2 0xE8B JUMP JUMPDEST DUP1 DUP5 ADD SWAP2 POP POP SWAP3 SWAP2 POP POP JUMP JUMPDEST PUSH1 0x0 PUSH2 0xEF2 DUP3 DUP5 PUSH2 0xEB5 JUMP JUMPDEST SWAP2 POP DUP2 SWAP1 POP SWAP3 SWAP2 POP POP JUMP JUMPDEST PUSH32 0x416464726573733A2063616C6C20746F206E6F6E2D636F6E7472616374000000 PUSH1 0x0 DUP3 ADD MSTORE POP JUMP JUMPDEST PUSH1 0x0 PUSH2 0xF33 PUSH1 0x1D DUP4 PUSH2 0x918 JUMP JUMPDEST SWAP2 POP PUSH2 0xF3E DUP3 PUSH2 0xEFD JUMP JUMPDEST PUSH1 0x20 DUP3 ADD SWAP1 POP SWAP2 SWAP1 POP JUMP JUMPDEST PUSH1 0x0 PUSH1 0x20 DUP3 ADD SWAP1 POP DUP2 DUP2 SUB PUSH1 0x0 DUP4 ADD MSTORE PUSH2 0xF62 DUP2 PUSH2 0xF26 JUMP JUMPDEST SWAP1 POP SWAP2 SWAP1 POP JUMP JUMPDEST PUSH1 0x0 DUP2 MLOAD SWAP1 POP SWAP2 SWAP1 POP JUMP JUMPDEST PUSH1 0x0 PUSH1 0x1F NOT PUSH1 0x1F DUP4 ADD AND SWAP1 POP SWAP2 SWAP1 POP JUMP JUMPDEST PUSH1 0x0 PUSH2 0xF90 DUP3 PUSH2 0xF69 JUMP JUMPDEST PUSH2 0xF9A DUP2 DUP6 PUSH2 0x918 JUMP JUMPDEST SWAP4 POP PUSH2 0xFAA DUP2 DUP6 PUSH1 0x20 DUP7 ADD PUSH2 0xE8B JUMP JUMPDEST PUSH2 0xFB3 DUP2 PUSH2 0xF74 JUMP JUMPDEST DUP5 ADD SWAP2 POP POP SWAP3 SWAP2 POP POP JUMP JUMPDEST PUSH1 0x0 PUSH1 0x20 DUP3 ADD SWAP1 POP DUP2 DUP2 SUB PUSH1 0x0 DUP4 ADD MSTORE PUSH2 0xFD8 DUP2 DUP5 PUSH2 0xF85 JUMP JUMPDEST SWAP1 POP SWAP3 SWAP2 POP POP JUMP INVALID LOG2 PUSH5 0x6970667358 0x22 SLT KECCAK256 CALL DUP15 0xFC GASLIMIT 0xE3 0xC0 LOG2 0xE8 PUSH15 0x1403A1E67B2B2C11347A9780F84AE4 RETURNDATASIZE PUSH9 0x32F9AEABDAF564736F PUSH13 0x63430008130033000000000000 "},"methodIdentifiers":{"claim(bytes32[])":"b391c508","dropAmont()":"5dc53642","merkleRoot()":"2eb4a7ab","token()":"fc0c546a"}}}}}