{
  "_format": "hh-sol-artifact-1",
  "contractName": "MerkleDistributor",
  "sourceName": "contracts/MerkleDistributor.sol",
  "abi": [
    {
      "inputs": [
        {
          "internalType": "address",
          "name": "token_",
          "type": "address"
        },
        {
          "internalType": "bytes32",
          "name": "merkleRoot_",
          "type": "bytes32"
        },
        {
          "internalType": "uint256",
          "name": "dropAmont_",
          "type": "uint256"
        }
      ],
      "stateMutability": "nonpayable",
      "type": "constructor"
    },
    {
      "anonymous": false,
      "inputs": [
        {
          "indexed": true,
          "internalType": "address",
          "name": "_from",
          "type": "address"
        },
        {
          "indexed": false,
          "internalType": "uint256",
          "name": "_dropAmount",
          "type": "uint256"
        }
      ],
      "name": "Claimed",
      "type": "event"
    },
    {
      "inputs": [
        {
          "internalType": "bytes32[]",
          "name": "merkleProof",
          "type": "bytes32[]"
        }
      ],
      "name": "claim",
      "outputs": [],
      "stateMutability": "nonpayable",
      "type": "function"
    },
    {
      "inputs": [],
      "name": "dropAmont",
      "outputs": [
        {
          "internalType": "uint256",
          "name": "",
          "type": "uint256"
        }
      ],
      "stateMutability": "view",
      "type": "function"
    },
    {
      "inputs": [],
      "name": "merkleRoot",
      "outputs": [
        {
          "internalType": "bytes32",
          "name": "",
          "type": "bytes32"
        }
      ],
      "stateMutability": "view",
      "type": "function"
    },
    {
      "inputs": [],
      "name": "token",
      "outputs": [
        {
          "internalType": "address",
          "name": "",
          "type": "address"
        }
      ],
      "stateMutability": "view",
      "type": "function"
    }
  ],
  "bytecode": "0x60c06040523480156200001157600080fd5b506040516200120838038062001208833981810160405281019062000037919062000163565b8273ffffffffffffffffffffffffffffffffffffffff1660808173ffffffffffffffffffffffffffffffffffffffff16815250508160a0818152505080600081905550505050620001bf565b600080fd5b600073ffffffffffffffffffffffffffffffffffffffff82169050919050565b6000620000b58262000088565b9050919050565b620000c781620000a8565b8114620000d357600080fd5b50565b600081519050620000e781620000bc565b92915050565b6000819050919050565b6200010281620000ed565b81146200010e57600080fd5b50565b6000815190506200012281620000f7565b92915050565b6000819050919050565b6200013d8162000128565b81146200014957600080fd5b50565b6000815190506200015d8162000132565b92915050565b6000806000606084860312156200017f576200017e62000083565b5b60006200018f86828701620000d6565b9350506020620001a28682870162000111565b9250506040620001b5868287016200014c565b9150509250925092565b60805160a051611016620001f26000396000818160c901526101f001526000818161031101526103ac01526110166000f3fe608060405234801561001057600080fd5b506004361061004c5760003560e01c80632eb4a7ab146100515780635dc536421461006f578063b391c5081461008d578063fc0c546a146100a9575b600080fd5b6100596100c7565b60405161006691906107b1565b60405180910390f35b6100776100eb565b60405161008491906107e5565b60405180910390f35b6100a760048036038101906100a2919061086f565b6100f1565b005b6100b16103aa565b6040516100be91906108fd565b60405180910390f35b7f000000000000000000000000000000000000000000000000000000000000000081565b60005481565b600160003373ffffffffffffffffffffffffffffffffffffffff1673ffffffffffffffffffffffffffffffffffffffff16815260200190815260200160002060009054906101000a900460ff161561017e576040517f08c379a00000000000000000000000000000000000000000000000000000000081526004016101759061099b565b60405180910390fd5b6000336040516020016101919190610a03565b604051602081830303815290604052805190602001209050610215838380806020026020016040519081016040528093929190818152602001838360200280828437600081840152601f19601f820116905080830192505050505050507f0000000000000000000000000000000000000000000000000000000000000000836103ce565b610254576040517f08c379a000000000000000000000000000000000000000000000000000000000815260040161024b90610a6a565b60405180910390fd5b60004244416001436102669190610ab9565b4060405160200161027a9493929190610b6a565b6040516020818303038152906040528051906020012060001c905060006001600054836102a79190610be7565b6102b19190610c18565b905060018060003373ffffffffffffffffffffffffffffffffffffffff1673ffffffffffffffffffffffffffffffffffffffff16815260200190815260200160002060006101000a81548160ff02191690831515021790555061035533827f000000000000000000000000000000000000000000000000000000000000000073ffffffffffffffffffffffffffffffffffffffff166103e59092919063ffffffff16565b3373ffffffffffffffffffffffffffffffffffffffff167fd8138f8a3f377c5259ca548e70e4c2de94f129f5a11036a15b69513cba2b426a8260405161039b91906107e5565b60405180910390a25050505050565b7f000000000000000000000000000000000000000000000000000000000000000081565b6000826103db858461046b565b1490509392505050565b6104668363a9059cbb60e01b8484604051602401610404929190610c4c565b604051602081830303815290604052907bffffffffffffffffffffffffffffffffffffffffffffffffffffffff19166020820180517bffffffffffffffffffffffffffffffffffffffffffffffffffffffff83818316178352505050506104c1565b505050565b60008082905060005b84518110156104b6576104a18286838151811061049457610493610c75565b5b6020026020010151610589565b915080806104ae90610ca4565b915050610474565b508091505092915050565b6000610523826040518060400160405280602081526020017f5361666545524332303a206c6f772d6c6576656c2063616c6c206661696c65648152508573ffffffffffffffffffffffffffffffffffffffff166105b49092919063ffffffff16565b90506000815114806105455750808060200190518101906105449190610d24565b5b610584576040517f08c379a000000000000000000000000000000000000000000000000000000000815260040161057b90610dc3565b60405180910390fd5b505050565b60008183106105a15761059c82846105cc565b6105ac565b6105ab83836105cc565b5b905092915050565b60606105c384846000856105e3565b90509392505050565b600082600052816020526040600020905092915050565b606082471015610628576040517f08c379a000000000000000000000000000000000000000000000000000000000815260040161061f90610e55565b60405180910390fd5b6000808673ffffffffffffffffffffffffffffffffffffffff1685876040516106519190610ee6565b60006040518083038185875af1925050503d806000811461068e576040519150601f19603f3d011682016040523d82523d6000602084013e610693565b606091505b50915091506106a4878383876106b0565b92505050949350505050565b6060831561071257600083510361070a576106ca85610725565b610709576040517f08c379a000000000000000000000000000000000000000000000000000000000815260040161070090610f49565b60405180910390fd5b5b82905061071d565b61071c8383610748565b5b949350505050565b6000808273ffffffffffffffffffffffffffffffffffffffff163b119050919050565b60008251111561075b5781518083602001fd5b806040517f08c379a000000000000000000000000000000000000000000000000000000000815260040161078f9190610fbe565b60405180910390fd5b6000819050919050565b6107ab81610798565b82525050565b60006020820190506107c660008301846107a2565b92915050565b6000819050919050565b6107df816107cc565b82525050565b60006020820190506107fa60008301846107d6565b92915050565b600080fd5b600080fd5b600080fd5b600080fd5b600080fd5b60008083601f84011261082f5761082e61080a565b5b8235905067ffffffffffffffff81111561084c5761084b61080f565b5b60208301915083602082028301111561086857610867610814565b5b9250929050565b6000806020838503121561088657610885610800565b5b600083013567ffffffffffffffff8111156108a4576108a3610805565b5b6108b085828601610819565b92509250509250929050565b600073ffffffffffffffffffffffffffffffffffffffff82169050919050565b60006108e7826108bc565b9050919050565b6108f7816108dc565b82525050565b600060208201905061091260008301846108ee565b92915050565b600082825260208201905092915050565b7f4d65726b6c654469737472696275746f723a2044726f7020616c72656164792060008201527f636c61696d656400000000000000000000000000000000000000000000000000602082015250565b6000610985602783610918565b915061099082610929565b604082019050919050565b600060208201905081810360008301526109b481610978565b9050919050565b60008160601b9050919050565b60006109d3826109bb565b9050919050565b60006109e5826109c8565b9050919050565b6109fd6109f8826108dc565b6109da565b82525050565b6000610a0f82846109ec565b60148201915081905092915050565b7f4d65726b6c654469737472696275746f723a20496e76616c69642070726f6f66600082015250565b6000610a54602083610918565b9150610a5f82610a1e565b602082019050919050565b60006020820190508181036000830152610a8381610a47565b9050919050565b7f4e487b7100000000000000000000000000000000000000000000000000000000600052601160045260246000fd5b6000610ac4826107cc565b9150610acf836107cc565b9250828203905081811115610ae757610ae6610a8a565b5b92915050565b6000819050919050565b610b08610b03826107cc565b610aed565b82525050565b6000610b19826108bc565b9050919050565b6000610b2b826109c8565b9050919050565b610b43610b3e82610b0e565b610b20565b82525050565b6000819050919050565b610b64610b5f82610798565b610b49565b82525050565b6000610b768287610af7565b602082019150610b868286610af7565b602082019150610b968285610b32565b601482019150610ba68284610b53565b60208201915081905095945050505050565b7f4e487b7100000000000000000000000000000000000000000000000000000000600052601260045260246000fd5b6000610bf2826107cc565b9150610bfd836107cc565b925082610c0d57610c0c610bb8565b5b828206905092915050565b6000610c23826107cc565b9150610c2e836107cc565b9250828201905080821115610c4657610c45610a8a565b5b92915050565b6000604082019050610c6160008301856108ee565b610c6e60208301846107d6565b9392505050565b7f4e487b7100000000000000000000000000000000000000000000000000000000600052603260045260246000fd5b6000610caf826107cc565b91507fffffffffffffffffffffffffffffffffffffffffffffffffffffffffffffffff8203610ce157610ce0610a8a565b5b600182019050919050565b60008115159050919050565b610d0181610cec565b8114610d0c57600080fd5b50565b600081519050610d1e81610cf8565b92915050565b600060208284031215610d3a57610d39610800565b5b6000610d4884828501610d0f565b91505092915050565b7f5361666545524332303a204552433230206f7065726174696f6e20646964206e60008201527f6f74207375636365656400000000000000000000000000000000000000000000602082015250565b6000610dad602a83610918565b9150610db882610d51565b604082019050919050565b60006020820190508181036000830152610ddc81610da0565b9050919050565b7f416464726573733a20696e73756666696369656e742062616c616e636520666f60008201527f722063616c6c0000000000000000000000000000000000000000000000000000602082015250565b6000610e3f602683610918565b9150610e4a82610de3565b604082019050919050565b60006020820190508181036000830152610e6e81610e32565b9050919050565b600081519050919050565b600081905092915050565b60005b83811015610ea9578082015181840152602081019050610e8e565b60008484015250505050565b6000610ec082610e75565b610eca8185610e80565b9350610eda818560208601610e8b565b80840191505092915050565b6000610ef28284610eb5565b915081905092915050565b7f416464726573733a2063616c6c20746f206e6f6e2d636f6e7472616374000000600082015250565b6000610f33601d83610918565b9150610f3e82610efd565b602082019050919050565b60006020820190508181036000830152610f6281610f26565b9050919050565b600081519050919050565b6000601f19601f8301169050919050565b6000610f9082610f69565b610f9a8185610918565b9350610faa818560208601610e8b565b610fb381610f74565b840191505092915050565b60006020820190508181036000830152610fd88184610f85565b90509291505056fea2646970667358221220f18efc45e3c0a2e86e1403a1e67b2b2c11347a9780f84ae43d6832f9aeabdaf564736f6c63430008130033",
  "linkReferences": {},
  "deployedLinkReferences": {}
}